{
  "contractName": "Lock",
  "abi": [
    {
      "inputs": [],
      "stateMutability": "nonpayable",
      "type": "constructor"
    },
    {
      "anonymous": false,
      "inputs": [
        {
          "indexed": true,
          "internalType": "address",
          "name": "user",
          "type": "address"
        },
        {
          "indexed": false,
          "internalType": "uint256",
          "name": "amount",
          "type": "uint256"
        }
      ],
      "name": "TokensLocked",
      "type": "event"
    },
    {
      "inputs": [
        {
          "internalType": "address",
          "name": "",
          "type": "address"
        }
      ],
      "name": "lockedBalances",
      "outputs": [
        {
          "internalType": "uint256",
          "name": "",
          "type": "uint256"
        }
      ],
      "stateMutability": "view",
      "type": "function"
    },
    {
      "inputs": [],
      "name": "owner",
      "outputs": [
        {
          "internalType": "address",
          "name": "",
          "type": "address"
        }
      ],
      "stateMutability": "view",
      "type": "function"
    },
    {
      "inputs": [
        {
          "internalType": "uint256",
          "name": "amount",
          "type": "uint256"
        }
      ],
      "name": "lockTokens",
      "outputs": [],
      "stateMutability": "nonpayable",
      "type": "function"
    },
    {
      "inputs": [
        {
          "internalType": "address",
          "name": "user",
          "type": "address"
        }
      ],
      "name": "getLockedBalance",
      "outputs": [
        {
          "internalType": "uint256",
          "name": "",
          "type": "uint256"
        }
      ],
      "stateMutability": "view",
      "type": "function"
    }
  ],
  "bytecode": "0x608060405234801561000f575f80fd5b50335f806101000a81548173ffffffffffffffffffffffffffffffffffffffff021916908373ffffffffffffffffffffffffffffffffffffffff1602179055506104918061005c5f395ff3fe608060405234801561000f575f80fd5b506004361061004a575f3560e01c80630483a7f61461004e5780636e27d8891461007e5780638da5cb5b1461009a578063c4086893146100b8575b5f80fd5b610068600480360381019061006391906102aa565b6100e8565b60405161007591906102ed565b60405180910390f35b61009860048036038101906100939190610330565b6100fd565b005b6100a26101e3565b6040516100af919061036a565b60405180910390f35b6100d260048036038101906100cd91906102aa565b610206565b6040516100df91906102ed565b60405180910390f35b6001602052805f5260405f205f915090505481565b5f811161013f576040517f08c379a0000000000000000000000000000000000000000000000000000000008152600401610136906103dd565b60405180910390fd5b8060015f3373ffffffffffffffffffffffffffffffffffffffff1673ffffffffffffffffffffffffffffffffffffffff1681526020019081526020015f205f82825461018b9190610428565b925050819055503373ffffffffffffffffffffffffffffffffffffffff167fac87f20a77d28ee8bbb58ec87ea8fa968b3393efae1a368fd50b767c2847391c826040516101d891906102ed565b60405180910390a250565b5f8054906101000a900473ffffffffffffffffffffffffffffffffffffffff1681565b5f60015f8373ffffffffffffffffffffffffffffffffffffffff1673ffffffffffffffffffffffffffffffffffffffff1681526020019081526020015f20549050919050565b5f80fd5b5f73ffffffffffffffffffffffffffffffffffffffff82169050919050565b5f61027982610250565b9050919050565b6102898161026f565b8114610293575f80fd5b50565b5f813590506102a481610280565b92915050565b5f602082840312156102bf576102be61024c565b5b5f6102cc84828501610296565b91505092915050565b5f819050919050565b6102e7816102d5565b82525050565b5f6020820190506103005f8301846102de565b92915050565b61030f816102d5565b8114610319575f80fd5b50565b5f8135905061032a81610306565b92915050565b5f602082840312156103455761034461024c565b5b5f6103528482850161031c565b91505092915050565b6103648161026f565b82525050565b5f60208201905061037d5f83018461035b565b92915050565b5f82825260208201905092915050565b7f416d6f756e74206d7573742062652067726561746572207468616e207a65726f5f82015250565b5f6103c7602083610383565b91506103d282610393565b602082019050919050565b5f6020820190508181035f8301526103f4816103bb565b9050919050565b7f4e487b71000000000000000000000000000000000000000000000000000000005f52601160045260245ffd5b5f610432826102d5565b915061043d836102d5565b9250828201905080821115610455576104546103fb565b5b9291505056fea26469706673582212200226e497cafadc9133d07df0697fd2ac1efd40f3a94486bf1dced95ca070841464736f6c63430008150033",
  "immutableReferences": {},
  "source": "// SPDX-License-Identifier: MIT\npragma solidity ^0.8.0;\n\ncontract Lock {\n    address public owner;\n    mapping(address => uint256) public lockedBalances;\n\n    event TokensLocked(address indexed user, uint256 amount);\n\n    constructor() {\n        owner = msg.sender;\n    }\n\n    function lockTokens(uint256 amount) public {\n        require(amount > 0, \"Amount must be greater than zero\");\n\n        // Transfer the tokens from the user to this contract\n        // Assuming the contract has a function to receive tokens\n        // This can be done using ERC20 transferFrom function\n        // token.transferFrom(msg.sender, address(this), amount);\n\n        lockedBalances[msg.sender] += amount;\n\n        emit TokensLocked(msg.sender, amount);\n    }\n\n    function getLockedBalance(address user) public view returns (uint256) {\n        return lockedBalances[user];\n    }\n}\n",
  "sourcePath": "/Users/artimus100/Desktop/polyYeildSecure/ethereum/contracts/lock.sol",
  "compiler": {
    "name": "solc",
    "version": "0.8.21+commit.d9974bed.Emscripten.clang"
  },
  "schemaVersion": "3.4.16",
  "updatedAt": "2024-06-15T17:46:33.446Z",
  "devdoc": {
    "kind": "dev",
    "methods": {},
    "version": 1
  },
  "userdoc": {
    "kind": "user",
    "methods": {},
    "version": 1
  }
}