{
  "contractName": "Lock",
  "abi": [
    {
      "inputs": [],
      "stateMutability": "nonpayable",
      "type": "constructor"
    },
    {
      "anonymous": false,
      "inputs": [
        {
          "indexed": true,
          "internalType": "address",
          "name": "user",
          "type": "address"
        },
        {
          "indexed": false,
          "internalType": "uint256",
          "name": "amount",
          "type": "uint256"
        }
      ],
      "name": "TokensLocked",
      "type": "event"
    },
    {
      "inputs": [
        {
          "internalType": "address",
          "name": "",
          "type": "address"
        }
      ],
      "name": "lockedBalances",
      "outputs": [
        {
          "internalType": "uint256",
          "name": "",
          "type": "uint256"
        }
      ],
      "stateMutability": "view",
      "type": "function",
      "constant": true
    },
    {
      "inputs": [],
      "name": "owner",
      "outputs": [
        {
          "internalType": "address",
          "name": "",
          "type": "address"
        }
      ],
      "stateMutability": "view",
      "type": "function",
      "constant": true
    },
    {
      "inputs": [
        {
          "internalType": "uint256",
          "name": "amount",
          "type": "uint256"
        }
      ],
      "name": "lockTokens",
      "outputs": [],
      "stateMutability": "nonpayable",
      "type": "function"
    },
    {
      "inputs": [
        {
          "internalType": "address",
          "name": "user",
          "type": "address"
        }
      ],
      "name": "getLockedBalance",
      "outputs": [
        {
          "internalType": "uint256",
          "name": "",
          "type": "uint256"
        }
      ],
      "stateMutability": "view",
      "type": "function",
      "constant": true
    }
  ],
  "bytecode": "0x608060405234801561001057600080fd5b50336000806101000a81548173ffffffffffffffffffffffffffffffffffffffff021916908373ffffffffffffffffffffffffffffffffffffffff1602179055506104cc806100606000396000f3fe608060405234801561001057600080fd5b506004361061004c5760003560e01c80630483a7f6146100515780636e27d889146100815780638da5cb5b1461009d578063c4086893146100bb575b600080fd5b61006b60048036038101906100669190610284565b6100eb565b6040516100789190610352565b60405180910390f35b61009b600480360381019061009691906102ad565b610103565b005b6100a56101ed565b6040516100b29190610317565b60405180910390f35b6100d560048036038101906100d09190610284565b610211565b6040516100e29190610352565b60405180910390f35b60016020528060005260406000206000915090505481565b60008111610146576040517f08c379a000000000000000000000000000000000000000000000000000000000815260040161013d90610332565b60405180910390fd5b80600160003373ffffffffffffffffffffffffffffffffffffffff1673ffffffffffffffffffffffffffffffffffffffff1681526020019081526020016000206000828254610195919061037e565b925050819055503373ffffffffffffffffffffffffffffffffffffffff167fac87f20a77d28ee8bbb58ec87ea8fa968b3393efae1a368fd50b767c2847391c826040516101e29190610352565b60405180910390a250565b60008054906101000a900473ffffffffffffffffffffffffffffffffffffffff1681565b6000600160008373ffffffffffffffffffffffffffffffffffffffff1673ffffffffffffffffffffffffffffffffffffffff168152602001908152602001600020549050919050565b60008135905061026981610468565b92915050565b60008135905061027e8161047f565b92915050565b60006020828403121561029657600080fd5b60006102a48482850161025a565b91505092915050565b6000602082840312156102bf57600080fd5b60006102cd8482850161026f565b91505092915050565b6102df816103d4565b82525050565b60006102f260208361036d565b91506102fd8261043f565b602082019050919050565b61031181610406565b82525050565b600060208201905061032c60008301846102d6565b92915050565b6000602082019050818103600083015261034b816102e5565b9050919050565b60006020820190506103676000830184610308565b92915050565b600082825260208201905092915050565b600061038982610406565b915061039483610406565b9250827fffffffffffffffffffffffffffffffffffffffffffffffffffffffffffffffff038211156103c9576103c8610410565b5b828201905092915050565b60006103df826103e6565b9050919050565b600073ffffffffffffffffffffffffffffffffffffffff82169050919050565b6000819050919050565b7f4e487b7100000000000000000000000000000000000000000000000000000000600052601160045260246000fd5b7f416d6f756e74206d7573742062652067726561746572207468616e207a65726f600082015250565b610471816103d4565b811461047c57600080fd5b50565b61048881610406565b811461049357600080fd5b5056fea26469706673582212204a118d8be671cbee901eb60843e2b3e867bea774a71bde00c95d3c20777d9b9a64736f6c63430008040033",
  "immutableReferences": {},
  "source": "// SPDX-License-Identifier: MIT\npragma solidity ^0.8.0;\n\ncontract Lock {\n    address public owner;\n    mapping(address => uint256) public lockedBalances;\n\n    event TokensLocked(address indexed user, uint256 amount);\n\n    constructor() {\n        owner = msg.sender;\n    }\n\n    function lockTokens(uint256 amount) public {\n        require(amount > 0, \"Amount must be greater than zero\");\n\n        // Transfer the tokens from the user to this contract\n        // Assuming the contract has a function to receive tokens\n        // This can be done using ERC20 transferFrom function\n        // token.transferFrom(msg.sender, address(this), amount);\n\n        lockedBalances[msg.sender] += amount;\n\n        emit TokensLocked(msg.sender, amount);\n    }\n\n    function getLockedBalance(address user) public view returns (uint256) {\n        return lockedBalances[user];\n    }\n}\n",
  "sourcePath": "/Users/artimus100/Desktop/polyYeildSecure/ethereum/contracts/lock.sol",
  "compiler": {
    "name": "solc",
    "version": "0.8.4+commit.c7e474f2.Emscripten.clang"
  },
  "schemaVersion": "3.4.16",
  "updatedAt": "2024-06-15T19:21:04.870Z",
  "networkType": "ethereum",
  "devdoc": {
    "kind": "dev",
    "methods": {},
    "version": 1
  },
  "userdoc": {
    "kind": "user",
    "methods": {},
    "version": 1
  }
}